{
  "_format": "hh-sol-artifact-1",
  "contractName": "IDOPool",
  "sourceName": "contracts/IDOPool.sol",
  "abi": [
    {
      "inputs": [
        {
          "internalType": "address",
          "name": "_saleToken",
          "type": "address"
        },
        {
          "internalType": "address",
          "name": "_paymentToken",
          "type": "address"
        },
        {
          "internalType": "uint256",
          "name": "_rate",
          "type": "uint256"
        },
        {
          "internalType": "uint256",
          "name": "_cap",
          "type": "uint256"
        },
        {
          "internalType": "uint256",
          "name": "_softCap",
          "type": "uint256"
        },
        {
          "internalType": "uint256",
          "name": "_startOffset",
          "type": "uint256"
        },
        {
          "internalType": "uint256",
          "name": "_endOffset",
          "type": "uint256"
        }
      ],
      "stateMutability": "nonpayable",
      "type": "constructor"
    },
    {
      "inputs": [
        {
          "internalType": "address",
          "name": "owner",
          "type": "address"
        }
      ],
      "name": "OwnableInvalidOwner",
      "type": "error"
    },
    {
      "inputs": [
        {
          "internalType": "address",
          "name": "account",
          "type": "address"
        }
      ],
      "name": "OwnableUnauthorizedAccount",
      "type": "error"
    },
    {
      "inputs": [],
      "name": "ReentrancyGuardReentrantCall",
      "type": "error"
    },
    {
      "inputs": [
        {
          "internalType": "address",
          "name": "token",
          "type": "address"
        }
      ],
      "name": "SafeERC20FailedOperation",
      "type": "error"
    },
    {
      "anonymous": false,
      "inputs": [
        {
          "indexed": true,
          "internalType": "address",
          "name": "previousOwner",
          "type": "address"
        },
        {
          "indexed": true,
          "internalType": "address",
          "name": "newOwner",
          "type": "address"
        }
      ],
      "name": "OwnershipTransferred",
      "type": "event"
    },
    {
      "anonymous": false,
      "inputs": [
        {
          "indexed": true,
          "internalType": "address",
          "name": "buyer",
          "type": "address"
        },
        {
          "indexed": false,
          "internalType": "uint256",
          "name": "paid",
          "type": "uint256"
        },
        {
          "indexed": false,
          "internalType": "uint256",
          "name": "tokensIssued",
          "type": "uint256"
        }
      ],
      "name": "Purchased",
      "type": "event"
    },
    {
      "anonymous": false,
      "inputs": [
        {
          "indexed": false,
          "internalType": "uint256",
          "name": "start",
          "type": "uint256"
        },
        {
          "indexed": false,
          "internalType": "uint256",
          "name": "end",
          "type": "uint256"
        }
      ],
      "name": "RefundWindowUpdated",
      "type": "event"
    },
    {
      "anonymous": false,
      "inputs": [
        {
          "indexed": true,
          "internalType": "address",
          "name": "buyer",
          "type": "address"
        },
        {
          "indexed": false,
          "internalType": "uint256",
          "name": "amount",
          "type": "uint256"
        }
      ],
      "name": "Refunded",
      "type": "event"
    },
    {
      "anonymous": false,
      "inputs": [],
      "name": "RefundsEnabled",
      "type": "event"
    },
    {
      "anonymous": false,
      "inputs": [
        {
          "indexed": false,
          "internalType": "uint256",
          "name": "totalRaised",
          "type": "uint256"
        }
      ],
      "name": "SaleFinalized",
      "type": "event"
    },
    {
      "anonymous": false,
      "inputs": [
        {
          "indexed": true,
          "internalType": "address",
          "name": "owner",
          "type": "address"
        },
        {
          "indexed": false,
          "internalType": "uint256",
          "name": "amount",
          "type": "uint256"
        }
      ],
      "name": "UnsoldWithdrawn",
      "type": "event"
    },
    {
      "inputs": [],
      "name": "cap",
      "outputs": [
        {
          "internalType": "uint256",
          "name": "",
          "type": "uint256"
        }
      ],
      "stateMutability": "view",
      "type": "function"
    },
    {
      "inputs": [
        {
          "internalType": "address",
          "name": "",
          "type": "address"
        }
      ],
      "name": "contributions",
      "outputs": [
        {
          "internalType": "uint256",
          "name": "",
          "type": "uint256"
        }
      ],
      "stateMutability": "view",
      "type": "function"
    },
    {
      "inputs": [],
      "name": "enableGlobalRefund",
      "outputs": [],
      "stateMutability": "nonpayable",
      "type": "function"
    },
    {
      "inputs": [],
      "name": "end",
      "outputs": [
        {
          "internalType": "uint256",
          "name": "",
          "type": "uint256"
        }
      ],
      "stateMutability": "view",
      "type": "function"
    },
    {
      "inputs": [],
      "name": "endSale",
      "outputs": [],
      "stateMutability": "nonpayable",
      "type": "function"
    },
    {
      "inputs": [],
      "name": "finalize",
      "outputs": [],
      "stateMutability": "nonpayable",
      "type": "function"
    },
    {
      "inputs": [],
      "name": "finalized",
      "outputs": [
        {
          "internalType": "bool",
          "name": "",
          "type": "bool"
        }
      ],
      "stateMutability": "view",
      "type": "function"
    },
    {
      "inputs": [],
      "name": "owner",
      "outputs": [
        {
          "internalType": "address",
          "name": "",
          "type": "address"
        }
      ],
      "stateMutability": "view",
      "type": "function"
    },
    {
      "inputs": [],
      "name": "paymentToken",
      "outputs": [
        {
          "internalType": "contract IERC20",
          "name": "",
          "type": "address"
        }
      ],
      "stateMutability": "view",
      "type": "function"
    },
    {
      "inputs": [
        {
          "internalType": "uint256",
          "name": "amount",
          "type": "uint256"
        }
      ],
      "name": "purchase",
      "outputs": [],
      "stateMutability": "nonpayable",
      "type": "function"
    },
    {
      "inputs": [],
      "name": "raised",
      "outputs": [
        {
          "internalType": "uint256",
          "name": "",
          "type": "uint256"
        }
      ],
      "stateMutability": "view",
      "type": "function"
    },
    {
      "inputs": [],
      "name": "rate",
      "outputs": [
        {
          "internalType": "uint256",
          "name": "",
          "type": "uint256"
        }
      ],
      "stateMutability": "view",
      "type": "function"
    },
    {
      "inputs": [],
      "name": "refund",
      "outputs": [],
      "stateMutability": "nonpayable",
      "type": "function"
    },
    {
      "inputs": [],
      "name": "refundEnabled",
      "outputs": [
        {
          "internalType": "bool",
          "name": "",
          "type": "bool"
        }
      ],
      "stateMutability": "view",
      "type": "function"
    },
    {
      "inputs": [],
      "name": "refundEnd",
      "outputs": [
        {
          "internalType": "uint256",
          "name": "",
          "type": "uint256"
        }
      ],
      "stateMutability": "view",
      "type": "function"
    },
    {
      "inputs": [],
      "name": "refundStart",
      "outputs": [
        {
          "internalType": "uint256",
          "name": "",
          "type": "uint256"
        }
      ],
      "stateMutability": "view",
      "type": "function"
    },
    {
      "inputs": [],
      "name": "renounceOwnership",
      "outputs": [],
      "stateMutability": "nonpayable",
      "type": "function"
    },
    {
      "inputs": [],
      "name": "saleToken",
      "outputs": [
        {
          "internalType": "contract IERC20",
          "name": "",
          "type": "address"
        }
      ],
      "stateMutability": "view",
      "type": "function"
    },
    {
      "inputs": [
        {
          "internalType": "uint256",
          "name": "_cap",
          "type": "uint256"
        }
      ],
      "name": "setCap",
      "outputs": [],
      "stateMutability": "nonpayable",
      "type": "function"
    },
    {
      "inputs": [
        {
          "internalType": "uint256",
          "name": "_start",
          "type": "uint256"
        },
        {
          "internalType": "uint256",
          "name": "_end",
          "type": "uint256"
        }
      ],
      "name": "setRefundWindow",
      "outputs": [],
      "stateMutability": "nonpayable",
      "type": "function"
    },
    {
      "inputs": [
        {
          "internalType": "uint256",
          "name": "_softCap",
          "type": "uint256"
        }
      ],
      "name": "setSoftCap",
      "outputs": [],
      "stateMutability": "nonpayable",
      "type": "function"
    },
    {
      "inputs": [],
      "name": "softCap",
      "outputs": [
        {
          "internalType": "uint256",
          "name": "",
          "type": "uint256"
        }
      ],
      "stateMutability": "view",
      "type": "function"
    },
    {
      "inputs": [],
      "name": "start",
      "outputs": [
        {
          "internalType": "uint256",
          "name": "",
          "type": "uint256"
        }
      ],
      "stateMutability": "view",
      "type": "function"
    },
    {
      "inputs": [],
      "name": "startSale",
      "outputs": [],
      "stateMutability": "nonpayable",
      "type": "function"
    },
    {
      "inputs": [
        {
          "internalType": "address",
          "name": "newOwner",
          "type": "address"
        }
      ],
      "name": "transferOwnership",
      "outputs": [],
      "stateMutability": "nonpayable",
      "type": "function"
    },
    {
      "inputs": [],
      "name": "withdrawUnsoldTokens",
      "outputs": [],
      "stateMutability": "nonpayable",
      "type": "function"
    }
  ],
  "bytecode": "0x60806040523480156200001157600080fd5b50604051620026f9380380620026f98339818101604052810190620000379190620004f6565b33600073ffffffffffffffffffffffffffffffffffffffff168173ffffffffffffffffffffffffffffffffffffffff1603620000ad5760006040517f1e4fbdf7000000000000000000000000000000000000000000000000000000008152600401620000a49190620005ba565b60405180910390fd5b620000be816200038d60201b60201c565b5060018081905550600073ffffffffffffffffffffffffffffffffffffffff168773ffffffffffffffffffffffffffffffffffffffff160362000138576040517f08c379a00000000000000000000000000000000000000000000000000000000081526004016200012f9062000638565b60405180910390fd5b600073ffffffffffffffffffffffffffffffffffffffff168673ffffffffffffffffffffffffffffffffffffffff1603620001aa576040517f08c379a0000000000000000000000000000000000000000000000000000000008152600401620001a190620006aa565b60405180910390fd5b60008511620001f0576040517f08c379a0000000000000000000000000000000000000000000000000000000008152600401620001e7906200071c565b60405180910390fd5b6000841162000236576040517f08c379a00000000000000000000000000000000000000000000000000000000081526004016200022d906200078e565b60405180910390fd5b838311156200027c576040517f08c379a0000000000000000000000000000000000000000000000000000000008152600401620002739062000800565b60405180910390fd5b818111620002c1576040517f08c379a0000000000000000000000000000000000000000000000000000000008152600401620002b89062000872565b60405180910390fd5b86600260006101000a81548173ffffffffffffffffffffffffffffffffffffffff021916908373ffffffffffffffffffffffffffffffffffffffff16021790555085600360006101000a81548173ffffffffffffffffffffffffffffffffffffffff021916908373ffffffffffffffffffffffffffffffffffffffff1602179055508460048190555083600581905550826006819055508142620003669190620008c3565b60078190555080426200037a9190620008c3565b60088190555050505050505050620008fe565b60008060009054906101000a900473ffffffffffffffffffffffffffffffffffffffff169050816000806101000a81548173ffffffffffffffffffffffffffffffffffffffff021916908373ffffffffffffffffffffffffffffffffffffffff1602179055508173ffffffffffffffffffffffffffffffffffffffff168173ffffffffffffffffffffffffffffffffffffffff167f8be0079c531659141344cd1fd0a4f28419497f9722a3daafe3b4186f6b6457e060405160405180910390a35050565b600080fd5b600073ffffffffffffffffffffffffffffffffffffffff82169050919050565b6000620004838262000456565b9050919050565b620004958162000476565b8114620004a157600080fd5b50565b600081519050620004b5816200048a565b92915050565b6000819050919050565b620004d081620004bb565b8114620004dc57600080fd5b50565b600081519050620004f081620004c5565b92915050565b600080600080600080600060e0888a03121562000518576200051762000451565b5b6000620005288a828b01620004a4565b97505060206200053b8a828b01620004a4565b96505060406200054e8a828b01620004df565b9550506060620005618a828b01620004df565b9450506080620005748a828b01620004df565b93505060a0620005878a828b01620004df565b92505060c06200059a8a828b01620004df565b91505092959891949750929550565b620005b48162000476565b82525050565b6000602082019050620005d16000830184620005a9565b92915050565b600082825260208201905092915050565b7f73616c65546f6b656e206973207a65726f206164647265737300000000000000600082015250565b600062000620601983620005d7565b91506200062d82620005e8565b602082019050919050565b60006020820190508181036000830152620006538162000611565b9050919050565b7f7061796d656e74546f6b656e206973207a65726f206164647265737300000000600082015250565b600062000692601c83620005d7565b91506200069f826200065a565b602082019050919050565b60006020820190508181036000830152620006c58162000683565b9050919050565b7f72617465206d757374206265203e203000000000000000000000000000000000600082015250565b600062000704601083620005d7565b91506200071182620006cc565b602082019050919050565b600060208201905081810360008301526200073781620006f5565b9050919050565b7f636170206d757374206265203e20300000000000000000000000000000000000600082015250565b600062000776600f83620005d7565b915062000783826200073e565b602082019050919050565b60006020820190508181036000830152620007a98162000767565b9050919050565b7f736f6674436170206d757374206265203c3d2063617000000000000000000000600082015250565b6000620007e8601683620005d7565b9150620007f582620007b0565b602082019050919050565b600060208201905081810360008301526200081b81620007d9565b9050919050565b7f656e64206d757374206265206166746572207374617274000000000000000000600082015250565b60006200085a601783620005d7565b9150620008678262000822565b602082019050919050565b600060208201905081810360008301526200088d816200084b565b9050919050565b7f4e487b7100000000000000000000000000000000000000000000000000000000600052601160045260246000fd5b6000620008d082620004bb565b9150620008dd83620004bb565b9250828201905080821115620008f857620008f762000894565b5b92915050565b611deb806200090e6000396000f3fe608060405234801561001057600080fd5b506004361061018e5760003560e01c8063906a26e0116100de578063c8fb6c6b11610097578063efbe1c1c11610071578063efbe1c1c146103a7578063efef39a1146103c5578063f0ea4bfc146103e1578063f2fde38b146103ff5761018e565b8063c8fb6c6b1461034f578063d5cf5c721461036d578063e985e367146103895761018e565b8063906a26e0146102c3578063b3f05b97146102e1578063b66a0e5d146102ff578063b9f4b5c214610309578063be9a655514610327578063c8bdbfb6146103455761018e565b806342e94c901161014b5780634c4a386f116101255780634c4a386f14610273578063590e1ae314610291578063715018a61461029b5780638da5cb5b146102a55761018e565b806342e94c901461021d57806347786d371461024d5780634bb278f3146102695761018e565b80630239c7be146101935780630302f2ce146101af5780632c4e722e146101b95780633013ce29146101d7578063355274ea146101f5578063380d831b14610213575b600080fd5b6101ad60048036038101906101a8919061141c565b61041b565b005b6101b76104b0565b005b6101c1610501565b6040516101ce919061146b565b60405180910390f35b6101df610507565b6040516101ec9190611505565b60405180910390f35b6101fd61052d565b60405161020a919061146b565b60405180910390f35b61021b610533565b005b6102376004803603810190610232919061155e565b610588565b604051610244919061146b565b60405180910390f35b6102676004803603810190610262919061158b565b6105a0565b005b61027161063b565b005b61027b610835565b60405161028891906115d3565b60405180910390f35b610299610848565b005b6102a3610a6c565b005b6102ad610a80565b6040516102ba91906115fd565b60405180910390f35b6102cb610aa9565b6040516102d8919061146b565b60405180910390f35b6102e9610aaf565b6040516102f691906115d3565b60405180910390f35b610307610ac2565b005b610311610b17565b60405161031e919061146b565b60405180910390f35b61032f610b1d565b60405161033c919061146b565b60405180910390f35b61034d610b23565b005b610357610d1d565b604051610364919061146b565b60405180910390f35b6103876004803603810190610382919061158b565b610d23565b005b610391610dbe565b60405161039e9190611505565b60405180910390f35b6103af610de4565b6040516103bc919061146b565b60405180910390f35b6103df60048036038101906103da919061158b565b610dea565b005b6103e9611010565b6040516103f6919061146b565b60405180910390f35b6104196004803603810190610414919061155e565b611016565b005b61042361109c565b818111610465576040517f08c379a000000000000000000000000000000000000000000000000000000000815260040161045c90611675565b60405180910390fd5b8160098190555080600a819055507fd5ba5aeec06aef590e4dc32aa18ad18fb9eb6ec23cb3acebad875dd4bd1a857c82826040516104a4929190611695565b60405180910390a15050565b6104b861109c565b6001600b60006101000a81548160ff0219169083151502179055507f599d8e5a83cffb867d051598c4d70e805d59802d8081c1c7d6dffc5b6aca2b8960405160405180910390a1565b60045481565b600360009054906101000a900473ffffffffffffffffffffffffffffffffffffffff1681565b60055481565b61053b61109c565b600754421161057f576040517f08c379a00000000000000000000000000000000000000000000000000000000081526004016105769061170a565b60405180910390fd5b42600881905550565b600d6020528060005260406000206000915090505481565b6105a861109c565b60075442106105ec576040517f08c379a00000000000000000000000000000000000000000000000000000000081526004016105e390611776565b60405180910390fd5b600654811015610631576040517f08c379a0000000000000000000000000000000000000000000000000000000008152600401610628906117e2565b60405180910390fd5b8060058190555050565b61064361109c565b61064b611123565b600854421161068f576040517f08c379a00000000000000000000000000000000000000000000000000000000081526004016106869061184e565b60405180910390fd5b600b60019054906101000a900460ff16156106df576040517f08c379a00000000000000000000000000000000000000000000000000000000081526004016106d6906118ba565b60405180910390fd5b6001600b60016101000a81548160ff021916908315150217905550600654600c541015610752576001600b60006101000a81548160ff0219169083151502179055507f599d8e5a83cffb867d051598c4d70e805d59802d8081c1c7d6dffc5b6aca2b8960405160405180910390a161082b565b6000600360009054906101000a900473ffffffffffffffffffffffffffffffffffffffff1673ffffffffffffffffffffffffffffffffffffffff166370a08231306040518263ffffffff1660e01b81526004016107af91906115fd565b602060405180830381865afa1580156107cc573d6000803e3d6000fd5b505050506040513d601f19601f820116820180604052508101906107f091906118ef565b90507f69f3cc4e34492a96604c6a9068df274385221039516ee176167f6defd2d195ee81604051610821919061146b565b60405180910390a1505b610833611169565b565b600b60009054906101000a900460ff1681565b610850611123565b6000600d60003373ffffffffffffffffffffffffffffffffffffffff1673ffffffffffffffffffffffffffffffffffffffff168152602001908152602001600020549050600081116108d7576040517f08c379a00000000000000000000000000000000000000000000000000000000081526004016108ce90611968565b60405180910390fd5b6000600854421180156108ed5750600654600c54105b9050600060095442101580156109055750600a544211155b905081806109105750805b806109275750600b60009054906101000a900460ff165b610966576040517f08c379a000000000000000000000000000000000000000000000000000000000815260040161095d906119d4565b60405180910390fd5b6000600d60003373ffffffffffffffffffffffffffffffffffffffff1673ffffffffffffffffffffffffffffffffffffffff1681526020019081526020016000208190555082600c60008282546109bd9190611a23565b92505081905550610a113384600360009054906101000a900473ffffffffffffffffffffffffffffffffffffffff1673ffffffffffffffffffffffffffffffffffffffff166111729092919063ffffffff16565b3373ffffffffffffffffffffffffffffffffffffffff167fd7dee2702d63ad89917b6a4da9981c90c4d24f8c2bdfd64c604ecae57d8d065184604051610a57919061146b565b60405180910390a2505050610a6a611169565b565b610a7461109c565b610a7e60006111f1565b565b60008060009054906101000a900473ffffffffffffffffffffffffffffffffffffffff16905090565b60065481565b600b60019054906101000a900460ff1681565b610aca61109c565b6008544210610b0e576040517f08c379a0000000000000000000000000000000000000000000000000000000008152600401610b0590611aa3565b60405180910390fd5b42600781905550565b60095481565b60075481565b610b2b61109c565b610b33611123565b600b60019054906101000a900460ff16610b82576040517f08c379a0000000000000000000000000000000000000000000000000000000008152600401610b7990611b0f565b60405180910390fd5b600654600c541015610bc9576040517f08c379a0000000000000000000000000000000000000000000000000000000008152600401610bc090611b7b565b60405180910390fd5b6000600260009054906101000a900473ffffffffffffffffffffffffffffffffffffffff1673ffffffffffffffffffffffffffffffffffffffff166370a08231306040518263ffffffff1660e01b8152600401610c2691906115fd565b602060405180830381865afa158015610c43573d6000803e3d6000fd5b505050506040513d601f19601f82011682018060405250810190610c6791906118ef565b9050610cbd610c74610a80565b82600260009054906101000a900473ffffffffffffffffffffffffffffffffffffffff1673ffffffffffffffffffffffffffffffffffffffff166111729092919063ffffffff16565b610cc5610a80565b73ffffffffffffffffffffffffffffffffffffffff167f60755e67c2e961a84a747090c14ac3f535092f026b6ec21422a343ae98fe458082604051610d0a919061146b565b60405180910390a250610d1b611169565b565b600a5481565b610d2b61109c565b6007544210610d6f576040517f08c379a0000000000000000000000000000000000000000000000000000000008152600401610d6690611776565b60405180910390fd5b600554811115610db4576040517f08c379a0000000000000000000000000000000000000000000000000000000008152600401610dab90611be7565b60405180910390fd5b8060068190555050565b600260009054906101000a900473ffffffffffffffffffffffffffffffffffffffff1681565b60085481565b610df2611123565b6007544210158015610e0657506008544211155b610e45576040517f08c379a0000000000000000000000000000000000000000000000000000000008152600401610e3c90611c53565b60405180910390fd5b60055481600c54610e569190611c73565b1115610e97576040517f08c379a0000000000000000000000000000000000000000000000000000000008152600401610e8e90611cf3565b60405180910390fd5b610ee6333083600360009054906101000a900473ffffffffffffffffffffffffffffffffffffffff1673ffffffffffffffffffffffffffffffffffffffff166112b5909392919063ffffffff16565b80600d60003373ffffffffffffffffffffffffffffffffffffffff1673ffffffffffffffffffffffffffffffffffffffff1681526020019081526020016000206000828254610f359190611c73565b9250508190555080600c6000828254610f4e9190611c73565b92505081905550600060045482610f659190611d13565b9050610fb43382600260009054906101000a900473ffffffffffffffffffffffffffffffffffffffff1673ffffffffffffffffffffffffffffffffffffffff166111729092919063ffffffff16565b3373ffffffffffffffffffffffffffffffffffffffff167ff761777482b4b40d2bcc0d050cfba6829900a2d8b3484bd0244ec0feeb3db5048383604051610ffc929190611695565b60405180910390a25061100d611169565b50565b600c5481565b61101e61109c565b600073ffffffffffffffffffffffffffffffffffffffff168173ffffffffffffffffffffffffffffffffffffffff16036110905760006040517f1e4fbdf700000000000000000000000000000000000000000000000000000000815260040161108791906115fd565b60405180910390fd5b611099816111f1565b50565b6110a4611337565b73ffffffffffffffffffffffffffffffffffffffff166110c2610a80565b73ffffffffffffffffffffffffffffffffffffffff1614611121576110e5611337565b6040517f118cdaa700000000000000000000000000000000000000000000000000000000815260040161111891906115fd565b60405180910390fd5b565b60026001540361115f576040517f3ee5aeb500000000000000000000000000000000000000000000000000000000815260040160405180910390fd5b6002600181905550565b60018081905550565b6111ec838473ffffffffffffffffffffffffffffffffffffffff1663a9059cbb85856040516024016111a5929190611d55565b604051602081830303815290604052915060e01b6020820180517bffffffffffffffffffffffffffffffffffffffffffffffffffffffff838183161783525050505061133f565b505050565b60008060009054906101000a900473ffffffffffffffffffffffffffffffffffffffff169050816000806101000a81548173ffffffffffffffffffffffffffffffffffffffff021916908373ffffffffffffffffffffffffffffffffffffffff1602179055508173ffffffffffffffffffffffffffffffffffffffff168173ffffffffffffffffffffffffffffffffffffffff167f8be0079c531659141344cd1fd0a4f28419497f9722a3daafe3b4186f6b6457e060405160405180910390a35050565b611331848573ffffffffffffffffffffffffffffffffffffffff166323b872dd8686866040516024016112ea93929190611d7e565b604051602081830303815290604052915060e01b6020820180517bffffffffffffffffffffffffffffffffffffffffffffffffffffffff838183161783525050505061133f565b50505050565b600033905090565b600080602060008451602086016000885af180611362576040513d6000823e3d81fd5b3d92506000519150506000821461137d576001811415611399565b60008473ffffffffffffffffffffffffffffffffffffffff163b145b156113db57836040517f5274afe70000000000000000000000000000000000000000000000000000000081526004016113d291906115fd565b60405180910390fd5b50505050565b600080fd5b6000819050919050565b6113f9816113e6565b811461140457600080fd5b50565b600081359050611416816113f0565b92915050565b60008060408385031215611433576114326113e1565b5b600061144185828601611407565b925050602061145285828601611407565b9150509250929050565b611465816113e6565b82525050565b6000602082019050611480600083018461145c565b92915050565b600073ffffffffffffffffffffffffffffffffffffffff82169050919050565b6000819050919050565b60006114cb6114c66114c184611486565b6114a6565b611486565b9050919050565b60006114dd826114b0565b9050919050565b60006114ef826114d2565b9050919050565b6114ff816114e4565b82525050565b600060208201905061151a60008301846114f6565b92915050565b600061152b82611486565b9050919050565b61153b81611520565b811461154657600080fd5b50565b60008135905061155881611532565b92915050565b600060208284031215611574576115736113e1565b5b600061158284828501611549565b91505092915050565b6000602082840312156115a1576115a06113e1565b5b60006115af84828501611407565b91505092915050565b60008115159050919050565b6115cd816115b8565b82525050565b60006020820190506115e860008301846115c4565b92915050565b6115f781611520565b82525050565b600060208201905061161260008301846115ee565b92915050565b600082825260208201905092915050565b7f696e76616c696420726566756e642077696e646f770000000000000000000000600082015250565b600061165f601583611618565b915061166a82611629565b602082019050919050565b6000602082019050818103600083015261168e81611652565b9050919050565b60006040820190506116aa600083018561145c565b6116b7602083018461145c565b9392505050565b7f73616c65206e6f74207374617274656400000000000000000000000000000000600082015250565b60006116f4601083611618565b91506116ff826116be565b602082019050919050565b60006020820190508181036000830152611723816116e7565b9050919050565b7f73616c6520616c72656164792073746172746564000000000000000000000000600082015250565b6000611760601483611618565b915061176b8261172a565b602082019050919050565b6000602082019050818103600083015261178f81611753565b9050919050565b7f636170203c20736f667443617000000000000000000000000000000000000000600082015250565b60006117cc600d83611618565b91506117d782611796565b602082019050919050565b600060208201905081810360008301526117fb816117bf565b9050919050565b7f73616c65206e6f7420656e646564000000000000000000000000000000000000600082015250565b6000611838600e83611618565b915061184382611802565b602082019050919050565b600060208201905081810360008301526118678161182b565b9050919050565b7f616c72656164792066696e616c697a6564000000000000000000000000000000600082015250565b60006118a4601183611618565b91506118af8261186e565b602082019050919050565b600060208201905081810360008301526118d381611897565b9050919050565b6000815190506118e9816113f0565b92915050565b600060208284031215611905576119046113e1565b5b6000611913848285016118da565b91505092915050565b7f6e6f20636f6e747269627574696f6e20746f20726566756e6400000000000000600082015250565b6000611952601983611618565b915061195d8261191c565b602082019050919050565b6000602082019050818103600083015261198181611945565b9050919050565b7f726566756e64206e6f7420616c6c6f7765640000000000000000000000000000600082015250565b60006119be601283611618565b91506119c982611988565b602082019050919050565b600060208201905081810360008301526119ed816119b1565b9050919050565b7f4e487b7100000000000000000000000000000000000000000000000000000000600052601160045260246000fd5b6000611a2e826113e6565b9150611a39836113e6565b9250828203905081811115611a5157611a506119f4565b5b92915050565b7f73616c6520616c726561647920656e6465640000000000000000000000000000600082015250565b6000611a8d601283611618565b9150611a9882611a57565b602082019050919050565b60006020820190508181036000830152611abc81611a80565b9050919050565b7f73616c65206e6f742066696e616c697a65640000000000000000000000000000600082015250565b6000611af9601283611618565b9150611b0482611ac3565b602082019050919050565b60006020820190508181036000830152611b2881611aec565b9050919050565b7f73616c6520646964206e6f74206d65657420736f667443617000000000000000600082015250565b6000611b65601983611618565b9150611b7082611b2f565b602082019050919050565b60006020820190508181036000830152611b9481611b58565b9050919050565b7f736f6674436170203e2063617000000000000000000000000000000000000000600082015250565b6000611bd1600d83611618565b9150611bdc82611b9b565b602082019050919050565b60006020820190508181036000830152611c0081611bc4565b9050919050565b7f73616c65206973206e6f74206163746976650000000000000000000000000000600082015250565b6000611c3d601283611618565b9150611c4882611c07565b602082019050919050565b60006020820190508181036000830152611c6c81611c30565b9050919050565b6000611c7e826113e6565b9150611c89836113e6565b9250828201905080821115611ca157611ca06119f4565b5b92915050565b7f6361702065786365656465640000000000000000000000000000000000000000600082015250565b6000611cdd600c83611618565b9150611ce882611ca7565b602082019050919050565b60006020820190508181036000830152611d0c81611cd0565b9050919050565b6000611d1e826113e6565b9150611d29836113e6565b9250828202611d37816113e6565b91508282048414831517611d4e57611d4d6119f4565b5b5092915050565b6000604082019050611d6a60008301856115ee565b611d77602083018461145c565b9392505050565b6000606082019050611d9360008301866115ee565b611da060208301856115ee565b611dad604083018461145c565b94935050505056fea2646970667358221220672bd5bbd54269130a80b1bc989eb13e6523ca38084b4503418581e596c6318c64736f6c63430008140033",
  "linkReferences": {},
  "deployedLinkReferences": {}
}